{
  "contractName": "EllipticCurve",
  "abi": [
    {
      "constant": true,
      "inputs": [
        {
          "name": "_x",
          "type": "uint256"
        },
        {
          "name": "_pp",
          "type": "uint256"
        }
      ],
      "name": "invMod",
      "outputs": [
        {
          "name": "",
          "type": "uint256"
        }
      ],
      "payable": false,
      "stateMutability": "pure",
      "type": "function"
    },
    {
      "constant": true,
      "inputs": [
        {
          "name": "_base",
          "type": "uint256"
        },
        {
          "name": "_exp",
          "type": "uint256"
        },
        {
          "name": "_pp",
          "type": "uint256"
        }
      ],
      "name": "expMod",
      "outputs": [
        {
          "name": "",
          "type": "uint256"
        }
      ],
      "payable": false,
      "stateMutability": "pure",
      "type": "function"
    },
    {
      "constant": true,
      "inputs": [
        {
          "name": "_x",
          "type": "uint256"
        },
        {
          "name": "_y",
          "type": "uint256"
        },
        {
          "name": "_z",
          "type": "uint256"
        },
        {
          "name": "_pp",
          "type": "uint256"
        }
      ],
      "name": "toAffine",
      "outputs": [
        {
          "name": "",
          "type": "uint256"
        },
        {
          "name": "",
          "type": "uint256"
        }
      ],
      "payable": false,
      "stateMutability": "pure",
      "type": "function"
    },
    {
      "constant": true,
      "inputs": [
        {
          "name": "_prefix",
          "type": "uint8"
        },
        {
          "name": "_x",
          "type": "uint256"
        },
        {
          "name": "_aa",
          "type": "uint256"
        },
        {
          "name": "_bb",
          "type": "uint256"
        },
        {
          "name": "_pp",
          "type": "uint256"
        }
      ],
      "name": "deriveY",
      "outputs": [
        {
          "name": "",
          "type": "uint256"
        }
      ],
      "payable": false,
      "stateMutability": "pure",
      "type": "function"
    },
    {
      "constant": true,
      "inputs": [
        {
          "name": "_x",
          "type": "uint256"
        },
        {
          "name": "_y",
          "type": "uint256"
        },
        {
          "name": "_aa",
          "type": "uint256"
        },
        {
          "name": "_bb",
          "type": "uint256"
        },
        {
          "name": "_pp",
          "type": "uint256"
        }
      ],
      "name": "isOnCurve",
      "outputs": [
        {
          "name": "",
          "type": "bool"
        }
      ],
      "payable": false,
      "stateMutability": "pure",
      "type": "function"
    },
    {
      "constant": true,
      "inputs": [
        {
          "name": "_x",
          "type": "uint256"
        },
        {
          "name": "_y",
          "type": "uint256"
        },
        {
          "name": "_pp",
          "type": "uint256"
        }
      ],
      "name": "ecInv",
      "outputs": [
        {
          "name": "",
          "type": "uint256"
        },
        {
          "name": "",
          "type": "uint256"
        }
      ],
      "payable": false,
      "stateMutability": "pure",
      "type": "function"
    },
    {
      "constant": true,
      "inputs": [
        {
          "name": "_x1",
          "type": "uint256"
        },
        {
          "name": "_y1",
          "type": "uint256"
        },
        {
          "name": "_x2",
          "type": "uint256"
        },
        {
          "name": "_y2",
          "type": "uint256"
        },
        {
          "name": "_aa",
          "type": "uint256"
        },
        {
          "name": "_pp",
          "type": "uint256"
        }
      ],
      "name": "ecAdd",
      "outputs": [
        {
          "name": "",
          "type": "uint256"
        },
        {
          "name": "",
          "type": "uint256"
        }
      ],
      "payable": false,
      "stateMutability": "pure",
      "type": "function"
    },
    {
      "constant": true,
      "inputs": [
        {
          "name": "_x1",
          "type": "uint256"
        },
        {
          "name": "_y1",
          "type": "uint256"
        },
        {
          "name": "_x2",
          "type": "uint256"
        },
        {
          "name": "_y2",
          "type": "uint256"
        },
        {
          "name": "_aa",
          "type": "uint256"
        },
        {
          "name": "_pp",
          "type": "uint256"
        }
      ],
      "name": "ecSub",
      "outputs": [
        {
          "name": "",
          "type": "uint256"
        },
        {
          "name": "",
          "type": "uint256"
        }
      ],
      "payable": false,
      "stateMutability": "pure",
      "type": "function"
    },
    {
      "constant": true,
      "inputs": [
        {
          "name": "_k",
          "type": "uint256"
        },
        {
          "name": "_x",
          "type": "uint256"
        },
        {
          "name": "_y",
          "type": "uint256"
        },
        {
          "name": "_aa",
          "type": "uint256"
        },
        {
          "name": "_pp",
          "type": "uint256"
        }
      ],
      "name": "ecMul",
      "outputs": [
        {
          "name": "",
          "type": "uint256"
        },
        {
          "name": "",
          "type": "uint256"
        }
      ],
      "payable": false,
      "stateMutability": "pure",
      "type": "function"
    }
  ],
  "bytecode": "0x6111fb610026600b82828239805160001a60731461001957fe5b30600052607381538281f3fe730000000000000000000000000000000000000000301460806040526004361061009d5760003560e01c80637559d550116100705780637559d550146102485780638ba5ceeb146102a5578063ad69caa514610312578063c4371a1c14610368578063c5e45aa4146103cf5761009d565b80631b54f824146100a2578063364b62d5146100ee57806337103a671461015f5780635bf11ed3146101cd575b600080fd5b6100d8600480360360408110156100b857600080fd5b81019080803590602001909291908035906020019092919050505061044a565b6040518082815260200191505060405180910390f35b610142600480360360a081101561010457600080fd5b810190808035906020019092919080359060200190929190803590602001909291908035906020019092919080359060200190929190505050610544565b604051808381526020018281526020019250505060405180910390f35b6101b3600480360360a081101561017557600080fd5b81019080803590602001909291908035906020019092919080359060200190929190803590602001909291908035906020019092919050505061057e565b604051808215151515815260200191505060405180910390f35b61022b600480360360c08110156101e357600080fd5b81019080803590602001909291908035906020019092919080359060200190929190803590602001909291908035906020019092919080359060200190929190505050610620565b604051808381526020018281526020019250505060405180910390f35b6102886004803603606081101561025e57600080fd5b81019080803590602001909291908035906020019092919080359060200190929190505050610654565b604051808381526020018281526020019250505060405180910390f35b6102fc600480360360a08110156102bb57600080fd5b81019080803560ff16906020019092919080359060200190929190803590602001909291908035906020019092919080359060200190929190505050610670565b6040518082815260200191505060405180910390f35b6103526004803603606081101561032857600080fd5b810190808035906020019092919080359060200190929190803590602001909291905050506106f4565b6040518082815260200191505060405180910390f35b6103b26004803603608081101561037e57600080fd5b8101908080359060200190929190803590602001909291908035906020019092919080359060200190929190505050610822565b604051808381526020018281526020019250505060405180910390f35b61042d600480360360c08110156103e557600080fd5b8101908080359060200190929190803590602001909291908035906020019092919080359060200190929190803590602001909291908035906020019092919050505061087d565b604051808381526020018281526020019250505060405180910390f35b60008083148061045957508183145b806104645750600082145b156104d7576040517f08c379a000000000000000000000000000000000000000000000000000000000815260040180806020018281038252600e8152602001807f496e76616c6964206e756d62657200000000000000000000000000000000000081525060200191505060405180910390fd5b60008090506000600190506000849050600086905060005b600082146105365781838161050057fe5b04905083878061050c57fe5b888061051457fe5b86840989038708809550819650505081828202840380935081945050506104ef565b849550505050505092915050565b600080600080600061055b8a8a8a60018b8b6108f2565b92509250925061056d83838389610822565b945094505050509550959350505050565b6000856000148061058e57508186145b806105995750846000145b806105a357508185145b156105b15760009050610617565b600082806105bb57fe5b8687099050600083806105ca57fe5b8885806105d357fe5b8a8b09099050600086146105f95783806105e957fe5b84806105f157fe5b878a09820890505b6000851461060f57838061060957fe5b85820890505b808214925050505b95945050505050565b600080600080610631888887610654565b915091506106438a8a84848a8a61087d565b935093505050965096945050505050565b60008084838585038161066357fe5b0691509150935093915050565b600080828061067b57fe5b838061068357fe5b85858061068c57fe5b888a0908848061069857fe5b85806106a057fe5b898a0989090890506106c081600460018601816106b957fe5b04856106f4565b905060008060028960ff168401816106d457fe5b06146106e2578184036106e4565b815b9050809250505095945050505050565b600080841415610707576000905061081b565b6000831415610719576001905061081b565b6000821415610790576040517f08c379a000000000000000000000000000000000000000000000000000000000815260040180806020018281038252600f8152602001807f4d6f64756c7573206973207a65726f000000000000000000000000000000000081525060200191505060405180910390fd5b60006001905060007f800000000000000000000000000000000000000000000000000000000000000090505b600081111561081557838186161515870a85848509099150836002820486161515870a85848509099150836004820486161515870a85848509099150836008820486161515870a858485090991506010810490506107bc565b81925050505b9392505050565b6000806000610831858561044a565b90506000848061083d57fe5b82830990506000858061084c57fe5b828a0990506000868061085b57fe5b878061086357fe5b8486098a0990508181955095505050505094509492505050565b600080600080905060008090506000809050888b14156108b6576108a58b8b60018a8a610a86565b8093508194508295505050506108d4565b6108c78b8b60018c8c60018c610c50565b8093508194508295505050505b6108e083838389610822565b94509450505050965096945050505050565b60008060008089905061090361118b565b898160006003811061091157fe5b602002018181525050888160016003811061092857fe5b602002018181525050878160026003811061093f57fe5b6020020181815250506000809050600080905060006001905060008e1415610974578282829750975097505050505050610a7a565b5b60008514610a6b57600060018616146109d7576109ca8383838760006003811061099b57fe5b6020020151886001600381106109ad57fe5b6020020151896002600381106109bf57fe5b60200201518f610c50565b8093508194508295505050505b600285816109e157fe5b049450610a24846000600381106109f457fe5b602002015185600160038110610a0657fe5b602002015186600260038110610a1857fe5b60200201518d8d610a86565b86600060038110610a3157fe5b6020020187600160038110610a4257fe5b6020020188600260038110610a5357fe5b60200201838152508381525083815250505050610975565b82828297509750975050505050505b96509650969350505050565b600080600080861415610aa157878787925092509250610c45565b610aa961118b565b8480610ab157fe5b898a0981600060038110610ac157fe5b6020020181815250508480610ad257fe5b88890981600160038110610ae257fe5b6020020181815250508480610af357fe5b87880981600260038110610b0357fe5b60200201818152505060008580610b1657fe5b8680610b1e57fe5b83600160038110610b2b57fe5b60200201518c09600409905060008680610b4157fe5b8780610b4957fe5b8880610b5157fe5b85600260038110610b5e57fe5b602002015186600260038110610b7057fe5b6020020151098a098880610b8057fe5b85600060038110610b8d57fe5b602002015160030908905060008780610ba257fe5b8880610baa57fe5b84850889038980610bb757fe5b84850908905060008880610bc757fe5b8980610bcf57fe5b8a80610bd757fe5b87600160038110610be457fe5b602002015188600160038110610bf657fe5b6020020151096008098a038a80610c0957fe5b8b80610c1157fe5b858d038808860908905060008980610c2557fe5b8a80610c2d57fe5b8d8f0960020990508282829850985098505050505050505b955095509592505050565b6000806000808a148015610c645750600089145b15610c775786868692509250925061117e565b600087148015610c875750600086145b15610c9a5789898992509250925061117e565b610ca26111ad565b8480610caa57fe5b898a0981600060048110610cba57fe5b6020020181815250508480610ccb57fe5b81600060048110610cd857fe5b60200201518a0981600160048110610cec57fe5b6020020181815250508480610cfd57fe5b86870981600260048110610d0d57fe5b6020020181815250508480610d1e57fe5b81600260048110610d2b57fe5b6020020151870981600360048110610d3f57fe5b60200201818152505060405180608001604052808680610d5b57fe5b83600260048110610d6857fe5b60200201518e0981526020018680610d7c57fe5b83600360048110610d8957fe5b60200201518d0981526020018680610d9d57fe5b83600060048110610daa57fe5b60200201518b0981526020018680610dbe57fe5b83600160048110610dcb57fe5b60200201518a09815250905080600260048110610de457fe5b602002015181600060048110610df657fe5b60200201511415610f065780600360048110610e0e57fe5b602002015181600160048110610e2057fe5b602002015114610e98576040517f08c379a000000000000000000000000000000000000000000000000000000000815260040180806020018281038252600a8152602001807f57726f6e6720646174610000000000000000000000000000000000000000000081525060200191505060405180910390fd5b6040517f08c379a00000000000000000000000000000000000000000000000000000000081526004018080602001828103825260128152602001807f55736520646f75626c6520696e7374656164000000000000000000000000000081525060200191505060405180910390fd5b610f0e6111ad565b8580610f1657fe5b82600060048110610f2357fe5b6020020151870383600260048110610f3757fe5b60200201510881600060048110610f4a57fe5b6020020181815250508580610f5b57fe5b82600160048110610f6857fe5b6020020151870383600360048110610f7c57fe5b60200201510881600160048110610f8f57fe5b6020020181815250508580610fa057fe5b81600060048110610fad57fe5b602002015182600060048110610fbf57fe5b60200201510981600260048110610fd257fe5b6020020181815250508580610fe357fe5b81600060048110610ff057fe5b60200201518260026004811061100257fe5b6020020151098160036004811061101557fe5b6020020181815250506000868061102857fe5b8260036004811061103557fe5b60200201518803888061104457fe5b8460016004811061105157fe5b60200201518560016004811061106357fe5b602002015109089050868061107457fe5b878061107c57fe5b888061108457fe5b8460026004811061109157fe5b6020020151866000600481106110a357fe5b602002015109600209880382089050600087806110bc57fe5b88806110c457fe5b838a038a806110cf57fe5b866002600481106110dc57fe5b6020020151886000600481106110ee57fe5b602002015109088460016004811061110257fe5b6020020151099050878061111257fe5b888061111a57fe5b8460036004811061112757fe5b60200201518660016004811061113957fe5b6020020151098903820890506000888061114f57fe5b898061115757fe5b8b8f098560006004811061116757fe5b602002015109905082828297509750975050505050505b9750975097945050505050565b6040518060600160405280600390602082028038833980820191505090505090565b604051806080016040528060049060208202803883398082019150509050509056fea165627a7a72305820c2fe36eaa81e8342d1298ba17f8c67f6ead4e97ef6f9e92995077752ba773b0b0029",
  "source": "pragma solidity >=0.4.0 <0.6.0;\n\n\n/**\n * @title Elliptic Curve Library\n * @dev Library providing arithmetic operations over elliptic curves.\n * @author Witnet Foundation\n */\nlibrary EllipticCurve {\n\n  /// @dev Modular euclidean inverse of a number (mod p).\n  /// @param _x The number\n  /// @param _pp The modulus\n  /// @return q such that x*q = 1 (mod _pp)\n  function invMod(uint256 _x, uint256 _pp) public pure returns (uint256) {\n    if (_x == 0 || _x == _pp || _pp == 0) {\n      revert(\"Invalid number\");\n    }\n    uint256 q = 0;\n    uint256 newT = 1;\n    uint256 r = _pp;\n    uint256 newR = _x;\n    uint256 t;\n    while (newR != 0) {\n      t = r / newR;\n      (q, newT) = (newT, addmod(q, (_pp - mulmod(t, newT, _pp)), _pp));\n      (r, newR) = (newR, r - t * newR );\n    }\n\n    return q;\n  }\n\n  /// @dev Modular exponentiation, b^e % _pp.\n  /// Source: https://github.com/androlo/standard-contracts/blob/master/contracts/src/crypto/ECCMath.sol\n  /// @param _base base\n  /// @param _exp exponent\n  /// @param _pp modulus\n  /// @return r such that r = b**e (mod _pp)\n  function expMod(uint256 _base, uint256 _exp, uint256 _pp) public pure returns (uint256) {\n    if (_base == 0)\n      return 0;\n    if (_exp == 0)\n      return 1;\n    if (_pp == 0)\n      revert(\"Modulus is zero\");\n    uint256 r = 1;\n    uint256 bit = 2 ** 255;\n\n    assembly {\n      for { } gt(bit, 0) { }{\n        r := mulmod(mulmod(r, r, _pp), exp(_base, iszero(iszero(and(_exp, bit)))), _pp)\n        r := mulmod(mulmod(r, r, _pp), exp(_base, iszero(iszero(and(_exp, div(bit, 2))))), _pp)\n        r := mulmod(mulmod(r, r, _pp), exp(_base, iszero(iszero(and(_exp, div(bit, 4))))), _pp)\n        r := mulmod(mulmod(r, r, _pp), exp(_base, iszero(iszero(and(_exp, div(bit, 8))))), _pp)\n        bit := div(bit, 16)\n      }\n    }\n\n    return r;\n  }\n\n  /// @dev Converts a point (x, y, z) expressed in Jacobian coordinates to affine coordinates (x', y', 1).\n  /// @param _x coordinate x\n  /// @param _y coordinate y\n  /// @param _z coordinate z\n  /// @param _pp the modulus\n  /// @return (x', y') affine coordinates\n  function toAffine(\n    uint256 _x,\n    uint256 _y,\n    uint256 _z,\n    uint256 _pp)\n  public pure returns (uint256, uint256)\n  {\n    uint256 zInv = invMod(_z, _pp);\n    uint256 zInv2 = mulmod(zInv, zInv, _pp);\n    uint256 x2 = mulmod(_x, zInv2, _pp);\n    uint256 y2 = mulmod(_y, mulmod(zInv, zInv2, _pp), _pp);\n\n    return (x2, y2);\n  }\n\n  /// @dev Derives the y coordinate from a compressed-format point x.\n  /// @param _prefix parity byte (0x02 even, 0x03 odd)\n  /// @param _x coordinate x\n  /// @param _aa constant of curve\n  /// @param _bb constant of curve\n  /// @param _pp the modulus\n  /// @return y coordinate y\n  function deriveY(\n    uint8 _prefix,\n    uint256 _x,\n    uint256 _aa,\n    uint256 _bb,\n    uint256 _pp)\n  public pure returns (uint256)\n  {\n    // x^3 + ax + b\n    uint256 y2 = addmod(mulmod(_x, mulmod(_x, _x, _pp), _pp), addmod(mulmod(_x, _aa, _pp), _bb, _pp), _pp);\n    y2 = expMod(y2, (_pp + 1) / 4, _pp);\n    // uint256 cmp = yBit ^ y_ & 1;\n    uint256 y = (y2 + _prefix) % 2 == 0 ? y2 : _pp - y2;\n\n    return y;\n  }\n\n  /// @dev Check whether point (x,y) is on curve defined by a, b, and _pp.\n  /// @param _x coordinate x of P1\n  /// @param _y coordinate y of P1\n  /// @param _aa constant of curve\n  /// @param _bb constant of curve\n  /// @param _pp the modulus\n  /// @return true if x,y in the curve, false else\n  function isOnCurve(\n    uint _x,\n    uint _y,\n    uint _aa,\n    uint _bb,\n    uint _pp)\n  public pure returns (bool)\n  {\n    if (0 == _x || _x == _pp || 0 == _y || _y == _pp) {\n      return false;\n    }\n    // y^2\n    uint lhs = mulmod(_y, _y, _pp);\n    // x^3\n    uint rhs = mulmod(mulmod(_x, _x, _pp), _x, _pp);\n    if (_aa != 0) {\n      // x^3 + a*x\n      rhs = addmod(rhs, mulmod(_x, _aa, _pp), _pp);\n    }\n    if (_bb != 0) {\n      // x^3 + a*x + b\n      rhs = addmod(rhs, _bb, _pp);\n    }\n\n    return lhs == rhs;\n  }\n\n  /// @dev Calculate inverse (x, -y) of point (x, y).\n  /// @param _x coordinate x of P1\n  /// @param _y coordinate y of P1\n  /// @param _pp the modulus\n  /// @return (x, -y)\n  function ecInv(\n    uint256 _x,\n    uint256 _y,\n    uint256 _pp)\n  public pure returns (uint256, uint256)\n  {\n    return (_x, (_pp - _y) % _pp);\n  }\n\n  /// @dev Add two points (x1, y1) and (x2, y2) in affine coordinates.\n  /// @param _x1 coordinate x of P1\n  /// @param _y1 coordinate y of P1\n  /// @param _x2 coordinate x of P2\n  /// @param _y2 coordinate y of P2\n  /// @param _aa constant of the curve\n  /// @param _pp the modulus\n  /// @return (qx, qy) = P1+P2 in affine coordinates\n  function ecAdd(\n    uint256 _x1,\n    uint256 _y1,\n    uint256 _x2,\n    uint256 _y2,\n    uint256 _aa,\n    uint256 _pp)\n    public pure returns(uint256, uint256)\n  {\n    uint x = 0;\n    uint y = 0;\n    uint z = 0;\n    // Double if x1==x2 else add\n    if (_x1==_x2) {\n      (x, y, z) = jacDouble(\n        _x1,\n        _y1,\n        1,\n        _aa,\n        _pp);\n    } else {\n      (x, y, z) = jacAdd(\n        _x1,\n        _y1,\n        1,\n        _x2,\n        _y2,\n        1,\n        _pp);\n    }\n    // Get back to affine\n    return toAffine(\n      x,\n      y,\n      z,\n      _pp);\n  }\n\n  /// @dev Substract two points (x1, y1) and (x2, y2) in affine coordinates.\n  /// @param _x1 coordinate x of P1\n  /// @param _y1 coordinate y of P1\n  /// @param _x2 coordinate x of P2\n  /// @param _y2 coordinate y of P2\n  /// @param _aa constant of the curve\n  /// @param _pp the modulus\n  /// @return (qx, qy) = P1-P2 in affine coordinates\n  function ecSub(\n    uint256 _x1,\n    uint256 _y1,\n    uint256 _x2,\n    uint256 _y2,\n    uint256 _aa,\n    uint256 _pp)\n  public pure returns(uint256, uint256)\n  {\n    // invert square\n    (uint256 x, uint256 y) = ecInv(_x2, _y2, _pp);\n    // P1-square\n    return ecAdd(\n      _x1,\n      _y1,\n      x,\n      y,\n      _aa,\n      _pp);\n  }\n\n  /// @dev Multiply point (x1, y1, z1) times d in affine coordinates.\n  /// @param _k scalar to multiply\n  /// @param _x coordinate x of P1\n  /// @param _y coordinate y of P1\n  /// @param _aa constant of the curve\n  /// @param _pp the modulus\n  /// @return (qx, qy) = d*P in affine coordinates\n  function ecMul(\n    uint256 _k,\n    uint256 _x,\n    uint256 _y,\n    uint256 _aa,\n    uint256 _pp)\n  public pure returns(uint256, uint256)\n  {\n    // Jacobian multiplication\n    (uint256 x1, uint256 y1, uint256 z1) = jacMul(\n      _k,\n      _x,\n      _y,\n      1,\n      _aa,\n      _pp);\n    // Get back to affine\n    return toAffine(\n      x1,\n      y1,\n      z1,\n      _pp);\n  }\n\n  /// @dev Adds two points (x1, y1, z1) and (x2 y2, z2).\n  /// @param _x1 coordinate x of P1\n  /// @param _y1 coordinate y of P1\n  /// @param _z1 coordinate z of P1\n  /// @param _x2 coordinate x of square\n  /// @param _y2 coordinate y of square\n  /// @param _z2 coordinate z of square\n  /// @param _pp the modulus\n  /// @return (qx, qy, qz) P1+square in Jacobian\n  function jacAdd(\n    uint256 _x1,\n    uint256 _y1,\n    uint256 _z1,\n    uint256 _x2,\n    uint256 _y2,\n    uint256 _z2,\n    uint256 _pp)\n  internal pure returns (uint256, uint256, uint256)\n  {\n    if ((_x1==0)&&(_y1==0))\n      return (_x2, _y2, _z2);\n    if ((_x2==0)&&(_y2==0))\n      return (_x1, _y1, _z1);\n    // We follow the equations described in https://pdfs.semanticscholar.org/5c64/29952e08025a9649c2b0ba32518e9a7fb5c2.pdf Section 5\n\n    uint[4] memory zs; // z1^2, z1^3, z2^2, z2^3\n    zs[0] = mulmod(_z1, _z1, _pp);\n    zs[1] = mulmod(_z1, zs[0], _pp);\n    zs[2] = mulmod(_z2, _z2, _pp);\n    zs[3] = mulmod(_z2, zs[2], _pp);\n\n    // u1, s1, u2, s2\n    zs = [\n      mulmod(_x1, zs[2], _pp),\n      mulmod(_y1, zs[3], _pp),\n      mulmod(_x2, zs[0], _pp),\n      mulmod(_y2, zs[1], _pp)\n    ];\n    if (zs[0] == zs[2]) {\n      if (zs[1] != zs[3])\n        revert(\"Wrong data\");\n      else {\n        revert(\"Use double instead\");\n      }\n    }\n    uint[4] memory hr;\n    //h\n    hr[0] = addmod(zs[2], _pp - zs[0], _pp);\n    //r\n    hr[1] = addmod(zs[3], _pp - zs[1], _pp);\n    //h^2\n    hr[2] = mulmod(hr[0], hr[0], _pp);\n    // h^3\n    hr[3] = mulmod(hr[2], hr[0], _pp);\n    // qx = -h^3  -2u1h^2+r^2\n    uint256 qx = addmod(mulmod(hr[1], hr[1], _pp), _pp - hr[3], _pp);\n    qx = addmod(qx, _pp - mulmod(2, mulmod(zs[0], hr[2], _pp), _pp), _pp);\n    // qy = -s1*z1*h^3+r(u1*h^2 -x^3)\n    uint256 qy = mulmod(hr[1], addmod(mulmod(zs[0], hr[2], _pp), _pp - qx, _pp), _pp);\n    qy = addmod(qy, _pp - mulmod(zs[1], hr[3], _pp), _pp);\n    // qz = h*z1*z2\n    uint256 qz = mulmod(hr[0], mulmod(_z1, _z2, _pp), _pp);\n    return(qx, qy, qz);\n  }\n\n  /// @dev Doubles a points (x, y, z).\n  /// @param _x coordinate x of P1\n  /// @param _y coordinate y of P1\n  /// @param _z coordinate z of P1\n  /// @param _pp the modulus\n  /// @param _aa the a scalar in the curve equation\n  /// @return (qx, qy, qz) 2P in Jacobian\n  function jacDouble(\n    uint256 _x,\n    uint256 _y,\n    uint256 _z,\n    uint256 _aa,\n    uint256 _pp)\n  internal pure returns (uint256, uint256, uint256)\n  {\n    if (_z == 0)\n      return (_x, _y, _z);\n    uint256[3] memory square;\n    // We follow the equations described in https://pdfs.semanticscholar.org/5c64/29952e08025a9649c2b0ba32518e9a7fb5c2.pdf Section 5\n    // Note: there is a bug in the paper regarding the m parameter, M=3*(x1^2)+a*(z1^4)\n    square[0] = mulmod(_x, _x, _pp); //x1^2\n    square[1] = mulmod(_y, _y, _pp); //y1^2\n    square[2] = mulmod(_z, _z, _pp); //z1^2\n\n    // s\n    uint s = mulmod(4, mulmod(_x, square[1], _pp), _pp);\n    // m\n    uint m = addmod(mulmod(3, square[0], _pp), mulmod(_aa, mulmod(square[2], square[2], _pp), _pp), _pp);\n    // qx\n    uint256 qx = addmod(mulmod(m, m, _pp), _pp - addmod(s, s, _pp), _pp);\n    // qy = -8*y1^4 + M(S-T)\n    uint256 qy = addmod(mulmod(m, addmod(s, _pp - qx, _pp), _pp), _pp - mulmod(8, mulmod(square[1], square[1], _pp), _pp), _pp);\n    // qz = 2*y1*z1\n    uint256 qz = mulmod(2, mulmod(_y, _z, _pp), _pp);\n\n    return (qx, qy, qz);\n  }\n\n  /// @dev Multiply point (x, y, z) times d.\n  /// @param _d scalar to multiply\n  /// @param _x coordinate x of P1\n  /// @param _y coordinate y of P1\n  /// @param _z coordinate z of P1\n  /// @param _aa constant of curve\n  /// @param _pp the modulus\n  /// @return (qx, qy, qz) d*P1 in Jacobian\n  function jacMul(\n    uint256 _d,\n    uint256 _x,\n    uint256 _y,\n    uint256 _z,\n    uint256 _aa,\n    uint256 _pp)\n  internal pure returns (uint256, uint256, uint256)\n  {\n    uint256 remaining = _d;\n    uint256[3] memory point;\n    point[0] = _x;\n    point[1] = _y;\n    point[2] = _z;\n    uint256 qx = 0;\n    uint256 qy = 0;\n    uint256 qz = 1;\n\n    if (_d == 0) {\n      return (qx, qy, qz);\n    }\n    // Double and add algorithm\n    while (remaining != 0) {\n      if ((remaining & 1) != 0) {\n        (qx, qy, qz) = jacAdd(\n          qx,\n          qy,\n          qz,\n          point[0],\n          point[1],\n          point[2],\n          _pp);\n      }\n      remaining = remaining / 2;\n      (point[0], point[1], point[2]) = jacDouble(\n        point[0],\n        point[1],\n        point[2],\n        _aa,\n        _pp);\n    }\n    return (qx, qy, qz);\n  }\n}",
  "sourcePath": "/Users/suchetaaa/Desktop/Anonymous-e-voting/contracts/EllipticCurve.sol",
  "compiler": {
    "name": "solc",
    "version": "0.5.8+commit.23d335f2.Emscripten.clang"
  },
  "schemaVersion": "3.0.16",
  "updatedAt": "2019-10-12T23:34:13.076Z",
  "devdoc": {
    "author": "Witnet Foundation",
    "details": "Library providing arithmetic operations over elliptic curves.",
    "methods": {
      "deriveY(uint8,uint256,uint256,uint256,uint256)": {
        "details": "Derives the y coordinate from a compressed-format point x.",
        "params": {
          "_aa": "constant of curve",
          "_bb": "constant of curve",
          "_pp": "the modulus",
          "_prefix": "parity byte (0x02 even, 0x03 odd)",
          "_x": "coordinate x"
        },
        "return": "y coordinate y"
      },
      "ecAdd(uint256,uint256,uint256,uint256,uint256,uint256)": {
        "details": "Add two points (x1, y1) and (x2, y2) in affine coordinates.",
        "params": {
          "_aa": "constant of the curve",
          "_pp": "the modulus",
          "_x1": "coordinate x of P1",
          "_x2": "coordinate x of P2",
          "_y1": "coordinate y of P1",
          "_y2": "coordinate y of P2"
        },
        "return": "(qx, qy) = P1+P2 in affine coordinates"
      },
      "ecInv(uint256,uint256,uint256)": {
        "details": "Calculate inverse (x, -y) of point (x, y).",
        "params": {
          "_pp": "the modulus",
          "_x": "coordinate x of P1",
          "_y": "coordinate y of P1"
        },
        "return": "(x, -y)"
      },
      "ecMul(uint256,uint256,uint256,uint256,uint256)": {
        "details": "Multiply point (x1, y1, z1) times d in affine coordinates.",
        "params": {
          "_aa": "constant of the curve",
          "_k": "scalar to multiply",
          "_pp": "the modulus",
          "_x": "coordinate x of P1",
          "_y": "coordinate y of P1"
        },
        "return": "(qx, qy) = d*P in affine coordinates"
      },
      "ecSub(uint256,uint256,uint256,uint256,uint256,uint256)": {
        "details": "Substract two points (x1, y1) and (x2, y2) in affine coordinates.",
        "params": {
          "_aa": "constant of the curve",
          "_pp": "the modulus",
          "_x1": "coordinate x of P1",
          "_x2": "coordinate x of P2",
          "_y1": "coordinate y of P1",
          "_y2": "coordinate y of P2"
        },
        "return": "(qx, qy) = P1-P2 in affine coordinates"
      },
      "expMod(uint256,uint256,uint256)": {
        "details": "Modular exponentiation, b^e % _pp. Source: https://github.com/androlo/standard-contracts/blob/master/contracts/src/crypto/ECCMath.sol",
        "params": {
          "_base": "base",
          "_exp": "exponent",
          "_pp": "modulus"
        },
        "return": "r such that r = b**e (mod _pp)"
      },
      "invMod(uint256,uint256)": {
        "details": "Modular euclidean inverse of a number (mod p).",
        "params": {
          "_pp": "The modulus",
          "_x": "The number"
        },
        "return": "q such that x*q = 1 (mod _pp)"
      },
      "isOnCurve(uint256,uint256,uint256,uint256,uint256)": {
        "details": "Check whether point (x,y) is on curve defined by a, b, and _pp.",
        "params": {
          "_aa": "constant of curve",
          "_bb": "constant of curve",
          "_pp": "the modulus",
          "_x": "coordinate x of P1",
          "_y": "coordinate y of P1"
        },
        "return": "true if x,y in the curve, false else"
      },
      "toAffine(uint256,uint256,uint256,uint256)": {
        "details": "Converts a point (x, y, z) expressed in Jacobian coordinates to affine coordinates (x', y', 1).",
        "params": {
          "_pp": "the modulus",
          "_x": "coordinate x",
          "_y": "coordinate y",
          "_z": "coordinate z"
        },
        "return": "(x', y') affine coordinates"
      }
    },
    "title": "Elliptic Curve Library"
  },
  "userdoc": {
    "methods": {}
  }
}