{
  "contractName": "EVoting",
  "abi": [
    {
      "inputs": [],
      "payable": false,
      "stateMutability": "nonpayable",
      "type": "constructor"
    },
    {
      "constant": false,
      "inputs": [
        {
          "name": "_common",
          "type": "address"
        }
      ],
      "name": "setCommon",
      "outputs": [],
      "payable": false,
      "stateMutability": "nonpayable",
      "type": "function"
    },
    {
      "constant": false,
      "inputs": [
        {
          "name": "message",
          "type": "uint256"
        },
        {
          "name": "c0",
          "type": "uint256"
        },
        {
          "name": "keyImage",
          "type": "uint256[2]"
        },
        {
          "name": "s",
          "type": "uint256[]"
        },
        {
          "name": "pub_keys",
          "type": "uint256[2][]"
        }
      ],
      "name": "vote",
      "outputs": [
        {
          "name": "",
          "type": "uint256"
        }
      ],
      "payable": false,
      "stateMutability": "nonpayable",
      "type": "function"
    },
    {
      "constant": true,
      "inputs": [],
      "name": "winningProposal",
      "outputs": [
        {
          "name": "_winningProposal",
          "type": "uint8"
        }
      ],
      "payable": false,
      "stateMutability": "view",
      "type": "function"
    },
    {
      "constant": false,
      "inputs": [
        {
          "name": "x",
          "type": "uint256"
        }
      ],
      "name": "toBytes",
      "outputs": [
        {
          "name": "b",
          "type": "bytes"
        }
      ],
      "payable": false,
      "stateMutability": "nonpayable",
      "type": "function"
    }
  ],
  "bytecode": "0x60806040523480156200001157600080fd5b50336000806101000a81548173ffffffffffffffffffffffffffffffffffffffff021916908373ffffffffffffffffffffffffffffffffffffffff16021790555060018060008060009054906101000a900473ffffffffffffffffffffffffffffffffffffffff1673ffffffffffffffffffffffffffffffffffffffff1673ffffffffffffffffffffffffffffffffffffffff16815260200190815260200160002060000181905550600a600281620000cb9190620004c8565b5060405180610140016040528060405180604001604052807fa9ed5780be853a5682cc61389142df496809b747e423e472f1a61a47c9bfe18281526020017f4572d073b7955b7c847949c20ed2000450c8f52ad9b83a3ce24dd409cbc01d21815250815260200160405180604001604052807f54dc4bde844f233ad9b5fb43e71e8bcfd4c21d175d3b670991c30faba893dc3981526020017f0da8513dacf59a9384c47c1e9e934cb118e5a3ef4c58f7891ed068d8a4a14c0a815250815260200160405180604001604052807ff213f5a27836ab995d5d5183f0d771efc9383b3d0cf574f93b77eb4000de685681526020017fc361d91274ebf0a258f3baf6ce87f3c32d6a9ba4808c856ba105e89063ab19c9815250815260200160405180604001604052807f892090c9177551b29be614e60d8d4a54a805f3f850a5e13d5d44719873691add81526020017f26be2f213b9b0cb84b13fdfa9d28b042f60ded4150c82d9806d192887d2303fd815250815260200160405180604001604052807f8cdee0841aaa3dbf14530817a3e2e7c209c28e58894f884846f3c656b136909981526020017fb4ec71964b78059552b51eb4578b3a5d02edccdb43eab21f1d3ade827659c3e7815250815260200160405180604001604052807fd0e6aaf83cb6f7570a8b0d28ad0f33f08d0c5b5bcf02ceb4e60444ad9ebbc04281526020017fa612fdff207927dea42b83a60eccefcd08db09f69861d09aa93c44b426e827bc815250815260200160405180604001604052807f9f57f0f71ec5ab1dc86bba409164816d8312db8f7ad15870666be1f3f57b9d9b81526020017fc2934331a462c24b0d706ecdb774eff221bbf570dcef39e7f98da2e7c4c1d916815250815260200160405180604001604052807f9937ead84c1bed46defcd039152635f32ea92c728fd7e4f242d749148fe9c65e81526020017fa890ea307c37f1db4d21a1b19584eac4c82bd9f7ec87fd7e42570d3b739395a2815250815260200160405180604001604052807f2e90e70604590f72fa855a80336779aef09dc09fd4accad48a1bf5ba58de459981526020017fc5a6c0640e92c37033b64d2e0d2dde60567b90921dbdae2efb0f20ec6a4360fc815250815260200160405180604001604052807f1909b3749b0799f3dadb9b0daff18b49a5a163fe026981c37f64f448226b601c81526020017f69ca46a41007cd4cdc5e84dc42971b97dc8cf653e1a6b670c5733f038ea93b54815250815250600390600a6200046c929190620004f7565b507317458104da8654e7c067e3410a65080d9ddb14f3600560006101000a81548173ffffffffffffffffffffffffffffffffffffffff021916908373ffffffffffffffffffffffffffffffffffffffff16021790555062000632565b815481835581811115620004f257818360005260206000209182019101620004f191906200055c565b5b505050565b82805482825590600052602060002090600202810192821562000549579160200282015b8281111562000548578251829060026200053792919062000586565b50916020019190600201906200051b565b5b509050620005589190620005cb565b5090565b6200058391905b808211156200057f576000808201600090555060010162000563565b5090565b90565b8260028101928215620005b8579160200282015b82811115620005b75782518255916020019190600101906200059a565b5b509050620005c79190620005fc565b5090565b620005f991905b80821115620005f55760008181620005eb919062000624565b50600201620005d2565b5090565b90565b6200062191905b808211156200061d57600081600090555060010162000603565b5090565b90565b506000815560010160009055565b610b1b80620006426000396000f3fe608060405234801561001057600080fd5b506004361061004c5760003560e01c8063609ff1bd14610051578063775a8f5e14610075578063d647534f1461011c578063f63cf9421461030d575b600080fd5b610059610351565b604051808260ff1660ff16815260200191505060405180910390f35b6100a16004803603602081101561008b57600080fd5b81019080803590602001909291905050506103c9565b6040518080602001828103825283818151815260200191508051906020019080838360005b838110156100e15780820151818401526020810190506100c6565b50505050905090810190601f16801561010e5780820380516001836020036101000a031916815260200191505b509250505060405180910390f35b6102f7600480360360c081101561013257600080fd5b81019080803590602001909291908035906020019092919080604001906002806020026040519081016040528092919082600260200280828437600081840152601f19601f8201169050808301925050505050509192919290803590602001906401000000008111156101a457600080fd5b8201836020820111156101b657600080fd5b803590602001918460208302840111640100000000831117156101d857600080fd5b919080806020026020016040519081016040528093929190818152602001838360200280828437600081840152601f19601f8201169050808301925050505050505091929192908035906020019064010000000081111561023857600080fd5b82018360208201111561024a57600080fd5b8035906020019184604083028401116401000000008311171561026c57600080fd5b9190808060200260200160405190810160405280939291908181526020016000905b828210156102e5578484839050604002016002806020026040519081016040528092919082600260200280828437600081840152601f19601f8201169050808301925050505050508152602001906001019061028e565b5050505050919291929050505061040d565b6040518082815260200191505060405180910390f35b61034f6004803603602081101561032357600080fd5b81019080803573ffffffffffffffffffffffffffffffffffffffff16906020019092919050505061063c565b005b6000806000905060008090505b6002805490508160ff1610156103c4578160028260ff168154811061037f57fe5b906000526020600020016000015411156103b75760028160ff16815481106103a357fe5b906000526020600020016000015491508092505b808060010191505061035e565b505090565b606060206040519080825280601f01601f1916602001820160405280156103ff5781602001600182028038833980820191505090505b509050816020820152919050565b6000606061041a876103c9565b9050600560009054906101000a900473ffffffffffffffffffffffffffffffffffffffff1673ffffffffffffffffffffffffffffffffffffffff163373ffffffffffffffffffffffffffffffffffffffff16146104df576040517f08c379a00000000000000000000000000000000000000000000000000000000081526004018080602001828103825260208152602001807f73656e646572206973206e6f742074686520636f6d6d6f6e206164647265737381525060200191505060405180910390fd5b6104ec8187878787610725565b61055e576040517f08c379a000000000000000000000000000000000000000000000000000000000815260040180806020018281038252601d8152602001807f6c73616720766572696669636174696f6e206469646e277420776f726b00000081525060200191505060405180910390fd5b60006001146105d5576040517f08c379a00000000000000000000000000000000000000000000000000000000081526004018080602001828103825260118152602001807f576f726b696e672074696c6c206865726500000000000000000000000000000081525060200191505060405180910390fd5b600260016105e283610a43565b03815481106105ed57fe5b90600052602060002001600001600081548092919060010191905055506002600161061783610a43565b038154811061062257fe5b906000526020600020016000015491505095945050505050565b6000809054906101000a900473ffffffffffffffffffffffffffffffffffffffff1673ffffffffffffffffffffffffffffffffffffffff163373ffffffffffffffffffffffffffffffffffffffff16146106e1576040517f08c379a000000000000000000000000000000000000000000000000000000000815260040180806020018281038252603a815260200180610ab6603a913960400191505060405180910390fd5b80600560006101000a81548173ffffffffffffffffffffffffffffffffffffffff021916908373ffffffffffffffffffffffffffffffffffffffff16021790555050565b60008073__LSAG__________________________________63fe46a2b288888888886040518663ffffffff1660e01b8152600401808060200186815260200185600260200280838360005b8381101561078b578082015181840152602081019050610770565b505050509050018060200180602001848103845289818151815260200191508051906020019080838360005b838110156107d25780820151818401526020810190506107b7565b50505050905090810190601f1680156107ff5780820380516001836020036101000a031916815260200191505b50848103835286818151815260200191508051906020019060200280838360005b8381101561083b578082015181840152602081019050610820565b505050509050018481038252858181518152602001915080516000925b818410156108a15782846020026020010151600260200280838360005b83811015610890578082015181840152602081019050610875565b505050509050019260010192610858565b925050509850505050505050505060206040518083038186803b1580156108c757600080fd5b505af41580156108db573d6000803e3d6000fd5b505050506040513d60208110156108f157600080fd5b8101908080519060200190929190505050905080610913576000915050610a3a565b60008090505b6004805490508110156109af576004818154811061093357fe5b9060005260206000209060020201600001548660006002811061095257fe5b602002015114801561099257506004818154811061096c57fe5b9060005260206000209060020201600101548660016002811061098b57fe5b6020020151145b156109a257600092505050610a3a565b8080600101915050610919565b506109b8610a9b565b856000600281106109c557fe5b6020020151816000018181525050856001600281106109e057fe5b60200201518160200181815250506004819080600181540180825580915050906001820390600052602060002090600202016000909192909190915060008201518160000155602082015181600101555050506001925050505b95945050505050565b60008060008090505b8351811015610a91576001810184510360080260020a848281518110610a6e57fe5b602001015160f81c60f81b60f81c60ff1602820191508080600101915050610a4c565b5080915050919050565b60405180604001604052806000815260200160008152509056fe73656e646572206973206e6f7420746865206368616972706572736f6e2e2063616e74207365742074686520636f6d6d6f6e2061646472657373a165627a7a7230582090b5bb61d482ac2a245c549a04044c9b1231e280d438d7361e876e75d04601000029",
  "source": "pragma solidity >=0.4.0 <0.6.0;\n// pragma experimental ABIEncoderV2;\nimport \"./LSAG.sol\";\n\ncontract EVoting {\n\n    struct Voter {\n        uint weight;\n        bool voted;\n        uint8 vote;\n        address delegate;\n    }\n\n    struct Proposal {\n        uint voteCount;\n    }\n    \n    struct keyImages {\n        uint256 x;\n        uint256 y;\n    }\n\n    address chairperson;\n    mapping(address => Voter) voters;\n    Proposal[] proposals;\n    uint256[2][] _pub_keys;\n    keyImages[] I_array;\n    address common;\n\n    /// Create a new ballot with $(_numProposals, Proposals[] prop, uint256[2][] pubkeys) different proposals.\n    /// Initializing Public Keys, Proposal length\n    constructor(/*uint8 _proposals, address common_address, uint256[2][] memory _pubkeys, uint256 num_members*/) public {\n        chairperson = msg.sender;\n        voters[chairperson].weight = 1;\n        proposals.length = 10;\n        // for (uint i = 0; i < num_members; i++) {\n        //     pub_keys.push(_pubkeys[i]);\n        // }\n        _pub_keys =  [[76860218087793983084535703376981386467447611172084071853258931251531655143810,31412445800597707204000296306981535369487689728022294203473644188534598278433],[38383509265263568403091993992632738089196255623116815243548433385026133154873,6177458042690818063654998812321100640246417077410401798821997202074455067658],[109494974759407544115980221650269989415835863198723097195991870480545591748694,88373887815570028484318636992066972615473624433958557212898599653752288516553],[62024398634874066443962845630678733310841268459352721513836874076957014825693,17523914466505763903401497950553046259382636897003925910700830930167415374845],[63717588402740889593319833542751400718873158538928593038126726953424863531161,81834072601552631999151743416373775064561835219024365947336813467257575949287],[94488627319558170444192963521553866738182271320922938361822272954834163056706,75117489132020203438334222530089728350198927250708518444467009567047301998524],[72073121700845816532409909568957092975560328036852544806670390063697244167579,88008882899030566411419232439265353825316367124231879120604152247564011428118],[69302663261811420267463647311565591458354544084275858903094017435028909835870,76244600855121168108544883604098564729610790293645164381848998871531984754082],[21062411477782016300649284598637628528529199124745416083435916321565775381913,89400255616484687868490880757687246913068397762041460105517838105693640679676],[11324961394441086302516068549805884234494603864143349084821232258857030082588,47850239753691939370379379177679604685639311272023121432695464273305267682132]];\n\n        // pub_keys = [[57821270388025671679082986323759317106236019579646704630239591681422142402873, 81852641370837570497548634207073850211297355610253263906104967633874362469602], [25712850812449497645081724081388342780477851750572903542985504942115721367043, 7928418776134213981488203910441805777302498711166840436627074750328926186440]];\n        \n        common = 0x17458104Da8654E7C067e3410a65080D9dDB14F3;\n        \n    }\n    \n    function setCommon(address _common) public {\n        require(msg.sender == chairperson, \"sender is not the chairperson. cant set the common address\");\n        common = _common;\n    }\n\n    function bytesToUint(bytes memory b) internal returns (uint256){\n        uint256 number;\n        for(uint i=0;i<b.length;i++){\n            number = number + uint8(b[i])*(2**(8*(b.length-(i+1))));\n        }\n        return number;\n    }\n\n    /// Give $(toVoter) the right to vote on this ballot.\n    /// May only be called by $(chairperson).\n    // function giveRightToVote(address toVoter) public {\n    //     if (msg.sender != chairperson || voters[toVoter].voted) return;\n    //     voters[toVoter].weight = 1;\n    // }\n\n    /// Delegate your vote to the voter $(to).\n    // function delegate(address to) public {\n    //     Voter storage sender = voters[msg.sender]; // assigns reference\n    //     if (sender.voted) return;\n    //     while (voters[to].delegate != address(0) && voters[to].delegate != msg.sender)\n    //         to = voters[to].delegate;\n    //     if (to == msg.sender) return;\n    //     sender.voted = true;\n    //     sender.delegate = to;\n    //     Voter storage delegateTo = voters[to];\n    //     if (delegateTo.voted)\n    //         proposals[delegateTo.vote].voteCount += sender.weight;\n    //     else\n    //         delegateTo.weight += sender.weight;\n    // }\n    \n    \n    function LSAG_verify(bytes memory message, uint256 c0, uint256[2] memory keyImage, uint256[] memory s, uint256[2][] memory publicKeys) internal returns (bool) {\n        bool status = LSAG.verify(message, c0, keyImage, s, publicKeys);\n        \n        if (!status) return false;\n        for(uint i=0; i<I_array.length; i++) {\n            if (keyImage[0] == I_array[i].x && keyImage[1] == I_array[i].y) return false;\n        }\n        keyImages memory new_keyimage;\n        new_keyimage.x = keyImage[0];\n        new_keyimage.y = keyImage[1];\n        I_array.push(new_keyimage);\n        return true;\n\n    }\n    \n    /// Give a single vote to proposal $(toProposal).\n    function vote(uint message, uint256 c0, uint256[2] memory keyImage, uint256[] memory s, uint256[2][] memory pub_keys) public returns (uint){\n        bytes memory message = toBytes(message);\n        require(msg.sender == common, \"sender is not the common address\");\n\n        require(LSAG_verify(message, c0, keyImage, s, pub_keys), \"lsag verification didn't work\"); \n        require(1==0, \"Working till here\");\n        proposals[bytesToUint(message)-1].voteCount++;\n        return proposals[bytesToUint(message)-1].voteCount;\n        // Voter storage sender = voters[msg.sender];\n        // if (sender.voted || toProposal >= proposals.length) return;\n        // sender.voted = true;\n        // sender.vote = toProposal;\n        // proposals[toProposal].voteCount += sender.weight;\n    }\n\n    function winningProposal() public view returns (uint8 _winningProposal) {\n        uint256 winningVoteCount = 0;\n        for (uint8 prop = 0; prop < proposals.length; prop++)\n            if (proposals[prop].voteCount > winningVoteCount) {\n                winningVoteCount = proposals[prop].voteCount;\n                _winningProposal = prop;\n            }\n    }\n\n\n    // function to convert uint to bytes\n    function toBytes(uint256 x) public returns (bytes memory b) {\n    b = new bytes(32);\n    assembly { mstore(add(b, 32), x) }\n}\n\n}\n",
  "sourcePath": "/Users/suchetaaa/Desktop/Academics @IITB/Semester VII/Cryptocurrency/E-Voting/contracts/e_voting.sol",
  "compiler": {
    "name": "solc",
    "version": "0.5.8+commit.23d335f2.Emscripten.clang"
  },
  "schemaVersion": "3.0.16",
  "updatedAt": "2019-10-13T01:11:57.678Z",
  "devdoc": {
    "methods": {}
  },
  "userdoc": {
    "methods": {
      "constructor": "Create a new ballot with $(_numProposals, Proposals[] prop, uint256[2][] pubkeys) different proposals. Initializing Public Keys, Proposal length",
      "vote(uint256,uint256,uint256[2],uint256[],uint256[2][])": {
        "notice": "Give a single vote to proposal $(toProposal)."
      }
    }
  }
}