{
  "contractName": "EVoting",
  "abi": [
    {
      "inputs": [],
      "payable": false,
      "stateMutability": "nonpayable",
      "type": "constructor"
    },
    {
      "constant": false,
      "inputs": [
        {
          "name": "_common",
          "type": "address"
        }
      ],
      "name": "setCommon",
      "outputs": [],
      "payable": false,
      "stateMutability": "nonpayable",
      "type": "function"
    },
    {
      "constant": false,
      "inputs": [
        {
          "name": "message",
          "type": "uint256"
        },
        {
          "name": "c0",
          "type": "uint256"
        },
        {
          "name": "keyImage",
          "type": "uint256[2]"
        },
        {
          "name": "s",
          "type": "uint256[]"
        },
        {
          "name": "pub_keys",
          "type": "uint256[2][]"
        }
      ],
      "name": "vote",
      "outputs": [
        {
          "name": "",
          "type": "bool"
        }
      ],
      "payable": false,
      "stateMutability": "nonpayable",
      "type": "function"
    },
    {
      "constant": true,
      "inputs": [],
      "name": "winningProposal",
      "outputs": [
        {
          "name": "_winningProposal",
          "type": "uint8"
        },
        {
          "name": "winningVoteCount",
          "type": "uint256"
        }
      ],
      "payable": false,
      "stateMutability": "view",
      "type": "function"
    },
    {
      "constant": false,
      "inputs": [
        {
          "name": "x",
          "type": "uint256"
        }
      ],
      "name": "toBytes",
      "outputs": [
        {
          "name": "b",
          "type": "bytes"
        }
      ],
      "payable": false,
      "stateMutability": "nonpayable",
      "type": "function"
    }
  ],
  "bytecode": "0x608060405234801561001057600080fd5b50336000806101000a81548173ffffffffffffffffffffffffffffffffffffffff021916908373ffffffffffffffffffffffffffffffffffffffff16021790555060018060008060009054906101000a900473ffffffffffffffffffffffffffffffffffffffff1673ffffffffffffffffffffffffffffffffffffffff1673ffffffffffffffffffffffffffffffffffffffff1681526020019081526020016000206000018190555060036002816100c891906100ce565b50610121565b8154818355818111156100f5578183600052602060002091820191016100f491906100fa565b5b505050565b61011e91905b8082111561011a5760008082016000905550600101610100565b5090565b90565b6109b5806101306000396000f3fe608060405234801561001057600080fd5b506004361061004c5760003560e01c8063609ff1bd14610051578063775a8f5e1461007c578063d647534f14610123578063f63cf94214610318575b600080fd5b61005961035c565b604051808360ff1660ff1681526020018281526020019250505060405180910390f35b6100a86004803603602081101561009257600080fd5b81019080803590602001909291905050506103d6565b6040518080602001828103825283818151815260200191508051906020019080838360005b838110156100e85780820151818401526020810190506100cd565b50505050905090810190601f1680156101155780820380516001836020036101000a031916815260200191505b509250505060405180910390f35b6102fe600480360360c081101561013957600080fd5b81019080803590602001909291908035906020019092919080604001906002806020026040519081016040528092919082600260200280828437600081840152601f19601f8201169050808301925050505050509192919290803590602001906401000000008111156101ab57600080fd5b8201836020820111156101bd57600080fd5b803590602001918460208302840111640100000000831117156101df57600080fd5b919080806020026020016040519081016040528093929190818152602001838360200280828437600081840152601f19601f8201169050808301925050505050505091929192908035906020019064010000000081111561023f57600080fd5b82018360208201111561025157600080fd5b8035906020019184604083028401116401000000008311171561027357600080fd5b9190808060200260200160405190810160405280939291908181526020016000905b828210156102ec578484839050604002016002806020026040519081016040528092919082600260200280828437600081840152601f19601f82011690508083019250505050505081526020019060010190610295565b5050505050919291929050505061041a565b604051808215151515815260200191505060405180910390f35b61035a6004803603602081101561032e57600080fd5b81019080803573ffffffffffffffffffffffffffffffffffffffff1690602001909291905050506104e2565b005b600080600080905060008090505b6002805490508160ff1610156103d0578160028260ff168154811061038b57fe5b906000526020600020016000015411156103c35760028160ff16815481106103af57fe5b906000526020600020016000015491508093505b808060010191505061036a565b50509091565b606060206040519080825280601f01601f19166020018201604052801561040c5781602001600182028038833980820191505090505b509050816020820152919050565b60006060610427876103d6565b9050600560009054906101000a900473ffffffffffffffffffffffffffffffffffffffff1673ffffffffffffffffffffffffffffffffffffffff163373ffffffffffffffffffffffffffffffffffffffff1614801561048f575061048e81878787876105cb565b5b156104d357600260016104a1836108dd565b03815481106104ac57fe5b906000526020600020016000016000815480929190600101919050555060019150506104d9565b60009150505b95945050505050565b6000809054906101000a900473ffffffffffffffffffffffffffffffffffffffff1673ffffffffffffffffffffffffffffffffffffffff163373ffffffffffffffffffffffffffffffffffffffff1614610587576040517f08c379a000000000000000000000000000000000000000000000000000000000815260040180806020018281038252603a815260200180610950603a913960400191505060405180910390fd5b80600560006101000a81548173ffffffffffffffffffffffffffffffffffffffff021916908373ffffffffffffffffffffffffffffffffffffffff16021790555050565b60008073__LSAG__________________________________63fe46a2b288888888886040518663ffffffff1660e01b8152600401808060200186815260200185600260200280838360005b83811015610631578082015181840152602081019050610616565b505050509050018060200180602001848103845289818151815260200191508051906020019080838360005b8381101561067857808201518184015260208101905061065d565b50505050905090810190601f1680156106a55780820380516001836020036101000a031916815260200191505b50848103835286818151815260200191508051906020019060200280838360005b838110156106e15780820151818401526020810190506106c6565b505050509050018481038252858181518152602001915080516000925b818410156107475782846020026020010151600260200280838360005b8381101561073657808201518184015260208101905061071b565b5050505090500192600101926106fe565b925050509850505050505050505060206040518083038186803b15801561076d57600080fd5b505af4158015610781573d6000803e3d6000fd5b505050506040513d602081101561079757600080fd5b81019080805190602001909291905050509050809150506108d4565b60048054905081101561084957600481815481106107cd57fe5b906000526020600020906002020160000154866000600281106107ec57fe5b602002015114801561082c57506004818154811061080657fe5b9060005260206000209060020201600101548660016002811061082557fe5b6020020151145b1561083c576000925050506108d4565b80806001019150506107b3565b50610852610935565b8560006002811061085f57fe5b60200201518160000181815250508560016002811061087a57fe5b60200201518160200181815250506004819080600181540180825580915050906001820390600052602060002090600202016000909192909190915060008201518160000155602082015181600101555050506001925050505b95945050505050565b60008060008090505b835181101561092b576001810184510360080260020a84828151811061090857fe5b602001015160f81c60f81b60f81c60ff16028201915080806001019150506108e6565b5080915050919050565b60405180604001604052806000815260200160008152509056fe73656e646572206973206e6f7420746865206368616972706572736f6e2e2063616e74207365742074686520636f6d6d6f6e2061646472657373a165627a7a723058208b03575417a7569a65e32b7d33cb1f4131457753e4c7d848072e2b22a91f153c0029",
  "source": "pragma solidity >=0.4.0 <0.6.0;\n// pragma experimental ABIEncoderV2;\nimport \"./LSAG.sol\";\n\ncontract EVoting {\n\n    struct Voter {\n        uint weight;\n        bool voted;\n        uint8 vote;\n        address delegate;\n    }\n\n    struct Proposal {\n        uint voteCount;\n    }\n    \n    struct keyImages {\n        uint256 x;\n        uint256 y;\n    }\n\n    address chairperson;\n    mapping(address => Voter) voters;\n    Proposal[] proposals;\n    uint256[2][] _pub_keys;\n    keyImages[] I_array;\n    address common;\n\n    constructor(/*uint8 _proposals, address common_address, uint256[2][] memory _pubkeys, uint256 num_members*/) public {\n        chairperson = msg.sender;\n        voters[chairperson].weight = 1;\n        proposals.length = 3;\n        // for (uint i = 0; i < num_members; i++) {\n        //     pub_keys.push(_pubkeys[i]);\n        // }\n        // _pub_keys =  [[76860218087793983084535703376981386467447611172084071853258931251531655143810,31412445800597707204000296306981535369487689728022294203473644188534598278433],[38383509265263568403091993992632738089196255623116815243548433385026133154873,6177458042690818063654998812321100640246417077410401798821997202074455067658],[109494974759407544115980221650269989415835863198723097195991870480545591748694,88373887815570028484318636992066972615473624433958557212898599653752288516553],[62024398634874066443962845630678733310841268459352721513836874076957014825693,17523914466505763903401497950553046259382636897003925910700830930167415374845],[63717588402740889593319833542751400718873158538928593038126726953424863531161,81834072601552631999151743416373775064561835219024365947336813467257575949287],[94488627319558170444192963521553866738182271320922938361822272954834163056706,75117489132020203438334222530089728350198927250708518444467009567047301998524],[72073121700845816532409909568957092975560328036852544806670390063697244167579,88008882899030566411419232439265353825316367124231879120604152247564011428118],[69302663261811420267463647311565591458354544084275858903094017435028909835870,76244600855121168108544883604098564729610790293645164381848998871531984754082],[21062411477782016300649284598637628528529199124745416083435916321565775381913,89400255616484687868490880757687246913068397762041460105517838105693640679676],[11324961394441086302516068549805884234494603864143349084821232258857030082588,47850239753691939370379379177679604685639311272023121432695464273305267682132]];\n\n        // pub_keys = [[57821270388025671679082986323759317106236019579646704630239591681422142402873, 81852641370837570497548634207073850211297355610253263906104967633874362469602], [25712850812449497645081724081388342780477851750572903542985504942115721367043, 7928418776134213981488203910441805777302498711166840436627074750328926186440]];\n        \n        // common = 0x17458104Da8654E7C067e3410a65080D9dDB14F3;\n        \n    }\n    \n    function setCommon(address _common) public {\n        require(msg.sender == chairperson, \"sender is not the chairperson. cant set the common address\");\n        common = _common;\n    }\n\n    function bytesToUint(bytes memory b) internal returns (uint256){\n        uint256 number;\n        for(uint i=0;i<b.length;i++){\n            number = number + uint8(b[i])*(2**(8*(b.length-(i+1))));\n        }\n        return number;\n    }\n    \n    function LSAG_verify(bytes memory message, uint256 c0, uint256[2] memory keyImage, uint256[] memory s, uint256[2][] memory publicKeys) internal returns (bool) {\n        bool status = LSAG.verify(message, c0, keyImage, s, publicKeys);\n        return status;\n        \n        if (!status) return false;\n        for(uint i=0; i<I_array.length; i++) {\n            if (keyImage[0] == I_array[i].x && keyImage[1] == I_array[i].y) return false;\n        }\n        keyImages memory new_keyimage;\n        new_keyimage.x = keyImage[0];\n        new_keyimage.y = keyImage[1];\n        I_array.push(new_keyimage);\n        return true;\n\n    }\n    \n    /// Give a single vote to proposal $(toProposal).\n    function vote(uint message, uint256 c0, uint256[2] memory keyImage, uint256[] memory s, uint256[2][] memory pub_keys) public returns (bool){\n        bytes memory message = toBytes(message);\n        // require(msg.sender == common, \"sender is not the common address\");\n\n        // require(LSAG_verify(message, c0, keyImage, s, pub_keys), \"lsag verification didn't work\"); \n\n        if ((msg.sender == common) && LSAG_verify(message, c0, keyImage, s, pub_keys)) {\n            proposals[bytesToUint(message)-1].voteCount++;\n            return true;\n        }\n\n        return false;\n        \n        // return proposals[bytesToUint(message)-1].voteCount;\n    }\n\n    function winningProposal() public view returns (uint8 _winningProposal, uint256 winningVoteCount) {\n        uint256 winningVoteCount = 0;\n        for (uint8 prop = 0; prop < proposals.length; prop++)\n            if (proposals[prop].voteCount > winningVoteCount) {\n                winningVoteCount = proposals[prop].voteCount;\n                _winningProposal = prop;\n            }\n    }\n\n    // function to convert uint to bytes\n    function toBytes(uint256 x) public returns (bytes memory b) {\n    b = new bytes(32);\n    assembly { mstore(add(b, 32), x) }\n}\n\n}\n",
  "sourcePath": "/Users/suchetaaa/Desktop/Academics @IITB/Semester VII/Cryptocurrency/E-Voting/contracts/e_voting.sol",
  "compiler": {
    "name": "solc",
    "version": "0.5.8+commit.23d335f2.Emscripten.clang"
  },
  "schemaVersion": "3.0.16",
  "updatedAt": "2019-10-15T16:42:49.597Z",
  "devdoc": {
    "methods": {}
  },
  "userdoc": {
    "methods": {
      "vote(uint256,uint256,uint256[2],uint256[],uint256[2][])": {
        "notice": "Give a single vote to proposal $(toProposal)."
      }
    }
  }
}