{
  "contractName": "secp256k1",
  "abi": [
    {
      "constant": true,
      "inputs": [
        {
          "name": "privKey",
          "type": "uint256"
        }
      ],
      "name": "derivePubKey",
      "outputs": [
        {
          "name": "qx",
          "type": "uint256"
        },
        {
          "name": "qy",
          "type": "uint256"
        }
      ],
      "payable": false,
      "stateMutability": "pure",
      "type": "function"
    },
    {
      "constant": true,
      "inputs": [
        {
          "name": "s",
          "type": "uint256"
        }
      ],
      "name": "ecMultG",
      "outputs": [
        {
          "name": "qx",
          "type": "uint256"
        },
        {
          "name": "qy",
          "type": "uint256"
        }
      ],
      "payable": false,
      "stateMutability": "pure",
      "type": "function"
    },
    {
      "constant": true,
      "inputs": [
        {
          "name": "keyImage",
          "type": "uint256[2]"
        },
        {
          "name": "s",
          "type": "uint256"
        }
      ],
      "name": "ecMult",
      "outputs": [
        {
          "name": "qx",
          "type": "uint256"
        },
        {
          "name": "qy",
          "type": "uint256"
        }
      ],
      "payable": false,
      "stateMutability": "pure",
      "type": "function"
    },
    {
      "constant": true,
      "inputs": [
        {
          "name": "x",
          "type": "uint256[2]"
        },
        {
          "name": "y",
          "type": "uint256[2]"
        }
      ],
      "name": "ecAddd",
      "outputs": [
        {
          "name": "qx",
          "type": "uint256"
        },
        {
          "name": "qy",
          "type": "uint256"
        }
      ],
      "payable": false,
      "stateMutability": "pure",
      "type": "function"
    },
    {
      "constant": true,
      "inputs": [
        {
          "name": "prefix",
          "type": "uint8"
        },
        {
          "name": "x",
          "type": "uint256"
        }
      ],
      "name": "map_curve",
      "outputs": [
        {
          "name": "beta",
          "type": "uint256"
        },
        {
          "name": "y",
          "type": "uint256"
        }
      ],
      "payable": false,
      "stateMutability": "pure",
      "type": "function"
    },
    {
      "constant": true,
      "inputs": [
        {
          "name": "beta",
          "type": "uint256"
        },
        {
          "name": "y",
          "type": "uint256"
        }
      ],
      "name": "onCurveBeta",
      "outputs": [
        {
          "name": "",
          "type": "bool"
        }
      ],
      "payable": false,
      "stateMutability": "pure",
      "type": "function"
    },
    {
      "constant": true,
      "inputs": [
        {
          "name": "x",
          "type": "uint256"
        },
        {
          "name": "n",
          "type": "uint256"
        }
      ],
      "name": "addmodn",
      "outputs": [
        {
          "name": "",
          "type": "uint256"
        }
      ],
      "payable": false,
      "stateMutability": "pure",
      "type": "function"
    },
    {
      "constant": true,
      "inputs": [
        {
          "name": "x",
          "type": "uint256"
        }
      ],
      "name": "modn",
      "outputs": [
        {
          "name": "",
          "type": "uint256"
        }
      ],
      "payable": false,
      "stateMutability": "pure",
      "type": "function"
    }
  ],
  "bytecode": "0x6109e2610026600b82828239805160001a60731461001957fe5b30600052607381538281f3fe73000000000000000000000000000000000000000030146080604052600436106100925760003560e01c8063cf86462011610065578063cf864620146101bb578063e45501961461027c578063e76ee242146102d2578063f75f20601461031e57610092565b80634f06f2791461009757806381dd69fe146100d9578063bc9e2bcf14610129578063c018191414610172575b600080fd5b6100c3600480360360208110156100ad57600080fd5b81019080803590602001909291905050506103a8565b6040518082815260200191505060405180910390f35b61010f600480360360408110156100ef57600080fd5b8101908080359060200190929190803590602001909291905050506103db565b604051808215151515815260200191505060405180910390f35b6101556004803603602081101561013f57600080fd5b8101908080359060200190929190505050610412565b604051808381526020018281526020019250505060405180910390f35b61019e6004803603602081101561018857600080fd5b8101908080359060200190929190505050610536565b604051808381526020018281526020019250505060405180910390f35b61025f600480360360808110156101d157600080fd5b8101908080604001906002806020026040519081016040528092919082600260200280828437600081840152601f19601f820116905080830192505050505050919291929080604001906002806020026040519081016040528092919082600260200280828437600081840152601f19601f820116905080830192505050505050919291929050505061065a565b604051808381526020018281526020019250505060405180910390f35b6102b56004803603604081101561029257600080fd5b81019080803560ff1690602001909291908035906020019092919050505061078c565b604051808381526020018281526020019250505060405180910390f35b610308600480360360408110156102e857600080fd5b810190808035906020019092919080359060200190929190505050610879565b6040518082815260200191505060405180910390f35b61038b6004803603606081101561033457600080fd5b8101908080604001906002806020026040519081016040528092919082600260200280828437600081840152601f19601f8201169050808301925050505050509192919290803590602001909291905050506108ae565b604051808381526020018281526020019250505060405180910390f35b60007ffffffffffffffffffffffffffffffffffffffffffffffffffffffffefffffc2f82816103d357fe5b069050919050565b60007ffffffffffffffffffffffffffffffffffffffffffffffffffffffffefffffc2f8061040557fe5b8283098314905092915050565b60008073__EllipticCurve_________________________63364b62d5847f79be667ef9dcbbac55a06295ce870b07029bfcdb2dce28d959f2815b16f817987f483ada7726a3c4655da4fbfc0e1108a8fd17b448a68554199c47d08ffb10d4b860007ffffffffffffffffffffffffffffffffffffffffffffffffffffffffefffffc2f6040518663ffffffff1660e01b81526004018086815260200185815260200184815260200183815260200182815260200195505050505050604080518083038186803b1580156104e457600080fd5b505af41580156104f8573d6000803e3d6000fd5b505050506040513d604081101561050e57600080fd5b8101908080519060200190929190805190602001909291905050508092508193505050915091565b60008073__EllipticCurve_________________________63364b62d5847f79be667ef9dcbbac55a06295ce870b07029bfcdb2dce28d959f2815b16f817987f483ada7726a3c4655da4fbfc0e1108a8fd17b448a68554199c47d08ffb10d4b860007ffffffffffffffffffffffffffffffffffffffffffffffffffffffffefffffc2f6040518663ffffffff1660e01b81526004018086815260200185815260200184815260200183815260200182815260200195505050505050604080518083038186803b15801561060857600080fd5b505af415801561061c573d6000803e3d6000fd5b505050506040513d604081101561063257600080fd5b8101908080519060200190929190805190602001909291905050508092508193505050915091565b60008073__EllipticCurve_________________________63c5e45aa48560006002811061068457fe5b60200201518660016002811061069657fe5b6020020151866000600281106106a857fe5b6020020151876001600281106106ba57fe5b602002015160007ffffffffffffffffffffffffffffffffffffffffffffffffffffffffefffffc2f6040518763ffffffff1660e01b8152600401808781526020018681526020018581526020018481526020018381526020018281526020019650505050505050604080518083038186803b15801561073857600080fd5b505af415801561074c573d6000803e3d6000fd5b505050506040513d604081101561076257600080fd5b81019080805190602001909291908051906020019092919050505080925081935050509250929050565b60008073__EllipticCurve_________________________638ba5ceeb8585600060077ffffffffffffffffffffffffffffffffffffffffffffffffffffffffefffffc2f6040518663ffffffff1660e01b8152600401808660ff1660ff16815260200185815260200184815260200183815260200182815260200195505050505050604080518083038186803b15801561082557600080fd5b505af4158015610839573d6000803e3d6000fd5b505050506040513d604081101561084f57600080fd5b81019080805190602001909291908051906020019092919050505080925081935050509250929050565b60007ffffffffffffffffffffffffffffffffffffffffffffffffffffffffefffffc2f806108a357fe5b828408905092915050565b60008073__EllipticCurve_________________________63364b62d584866000600281106108d957fe5b6020020151876001600281106108eb57fe5b602002015160007ffffffffffffffffffffffffffffffffffffffffffffffffffffffffefffffc2f6040518663ffffffff1660e01b81526004018086815260200185815260200184815260200183815260200182815260200195505050505050604080518083038186803b15801561096257600080fd5b505af4158015610976573d6000803e3d6000fd5b505050506040513d604081101561098c57600080fd5b8101908080519060200190929190805190602001909291905050508092508193505050925092905056fea165627a7a72305820ef2be039e07d443be70ee097d504b313d29f342de644b3abdd7165698432b9000029",
  "source": "pragma solidity >=0.4.0 <0.6.0;\n\nimport \"./EllipticCurve.sol\";\n\n\n/**\n * @title Secp256k1 Elliptic Curve\n * @notice Example of particularization of Elliptic Curve for secp256k1 curve\n * @author Witnet Foundation\n */\nlibrary secp256k1 {\n\n  uint256 constant GX = 0x79BE667EF9DCBBAC55A06295CE870B07029BFCDB2DCE28D959F2815B16F81798;\n  uint256 constant GY = 0x483ADA7726A3C4655DA4FBFC0E1108A8FD17B448A68554199C47D08FFB10D4B8;\n  uint256 constant AA = 0;\n  uint256 constant BB = 7;\n  uint256 constant PP = 0xFFFFFFFFFFFFFFFFFFFFFFFFFFFFFFFFFFFFFFFFFFFFFFFFFFFFFFFEFFFFFC2F;\n  uint256 constant N = 0xFFFFFFFFFFFFFFFFFFFFFFFFFFFFFFFEBAAEDCE6AF48A03BBFD25E8CD0364141;\n\n  /// @dev Public Key derivation from private key\n  /// @param privKey The private key\n  /// @return (qx, qy) The Public Key\n  function derivePubKey(uint256 privKey) public pure returns(uint256 qx, uint256 qy) {\n    (qx, qy) = EllipticCurve.ecMul(\n      privKey,\n      GX,\n      GY,\n      AA,\n      PP\n    );\n  }\n\n  function ecMultG(uint256 s) public pure returns(uint256 qx, uint256 qy) {\n    (qx, qy) = EllipticCurve.ecMul(\n      s,\n      GX,\n      GY,\n      AA,\n      PP\n    );\n  }\n\n  function ecMult(uint256[2] memory keyImage, uint256 s) public pure returns(uint256 qx, uint256 qy) {\n    (qx, qy) = EllipticCurve.ecMul(\n      s,\n      keyImage[0],\n      keyImage[1],\n      AA,\n      PP\n    );\n  }\n\n  function ecAddd(uint256[2] memory x, uint256[2] memory y) public pure returns(uint256 qx, uint256 qy) {\n    (qx, qy) = EllipticCurve.ecAdd(\n      x[0],\n      x[1],\n      y[0],\n      y[1],\n      AA,\n      PP\n    );\n  }\n\n  function map_curve(uint8 prefix, uint256 x) public pure returns(uint256 beta, uint256 y) {\n    (beta, y) = EllipticCurve.deriveY(\n      prefix,\n      x, \n      AA, \n      BB, \n      PP\n    );\n    \n  }\n\n  function onCurveBeta(uint256 beta, uint256 y) public pure returns(bool) {\n    return beta == mulmod(y, y, PP);\n  }\n\n  function addmodn(uint256 x, uint256 n) public pure returns (uint256) {\n    return addmod(x, n, PP);\n  }\n\n  function modn(uint256 x) public pure returns (uint256) {\n    return x % PP;\n  }\n\n\n\n\n\n\n\n\n\n\n}",
  "sourcePath": "/Users/suchetaaa/Desktop/Academics @IITB/Semester VII/Cryptocurrency/E-Voting/contracts/secp256k1.sol",
  "compiler": {
    "name": "solc",
    "version": "0.5.8+commit.23d335f2.Emscripten.clang"
  },
  "schemaVersion": "3.0.16",
  "updatedAt": "2019-10-14T19:10:02.283Z",
  "devdoc": {
    "author": "Witnet Foundation",
    "methods": {
      "derivePubKey(uint256)": {
        "details": "Public Key derivation from private key",
        "params": {
          "privKey": "The private key"
        },
        "return": "(qx, qy) The Public Key"
      }
    },
    "title": "Secp256k1 Elliptic Curve"
  },
  "userdoc": {
    "methods": {},
    "notice": "Example of particularization of Elliptic Curve for secp256k1 curve"
  }
}