{
  "contractName": "secp256k1",
  "abi": [
    {
      "constant": true,
      "inputs": [
        {
          "name": "privKey",
          "type": "uint256"
        }
      ],
      "name": "derivePubKey",
      "outputs": [
        {
          "name": "qx",
          "type": "uint256"
        },
        {
          "name": "qy",
          "type": "uint256"
        }
      ],
      "payable": false,
      "stateMutability": "pure",
      "type": "function"
    },
    {
      "constant": true,
      "inputs": [
        {
          "name": "s",
          "type": "uint256"
        }
      ],
      "name": "ecMultG",
      "outputs": [
        {
          "name": "qx",
          "type": "uint256"
        },
        {
          "name": "qy",
          "type": "uint256"
        }
      ],
      "payable": false,
      "stateMutability": "pure",
      "type": "function"
    },
    {
      "constant": true,
      "inputs": [
        {
          "name": "keyImage",
          "type": "uint256[2]"
        },
        {
          "name": "s",
          "type": "uint256"
        }
      ],
      "name": "ecMult",
      "outputs": [
        {
          "name": "qx",
          "type": "uint256"
        },
        {
          "name": "qy",
          "type": "uint256"
        }
      ],
      "payable": false,
      "stateMutability": "pure",
      "type": "function"
    },
    {
      "constant": true,
      "inputs": [
        {
          "name": "x",
          "type": "uint256[2]"
        },
        {
          "name": "y",
          "type": "uint256[2]"
        }
      ],
      "name": "ecAddd",
      "outputs": [
        {
          "name": "qx",
          "type": "uint256"
        },
        {
          "name": "qy",
          "type": "uint256"
        }
      ],
      "payable": false,
      "stateMutability": "pure",
      "type": "function"
    }
  ],
  "bytecode": "0x6106e6610026600b82828239805160001a60731461001957fe5b30600052607381538281f3fe73000000000000000000000000000000000000000030146080604052600436106100565760003560e01c8063bc9e2bcf1461005b578063c0181914146100a4578063cf864620146100ed578063f75f2060146101ae575b600080fd5b6100876004803603602081101561007157600080fd5b8101908080359060200190929190505050610238565b604051808381526020018281526020019250505060405180910390f35b6100d0600480360360208110156100ba57600080fd5b810190808035906020019092919050505061035c565b604051808381526020018281526020019250505060405180910390f35b6101916004803603608081101561010357600080fd5b8101908080604001906002806020026040519081016040528092919082600260200280828437600081840152601f19601f820116905080830192505050505050919291929080604001906002806020026040519081016040528092919082600260200280828437600081840152601f19601f8201169050808301925050505050509192919290505050610480565b604051808381526020018281526020019250505060405180910390f35b61021b600480360360608110156101c457600080fd5b8101908080604001906002806020026040519081016040528092919082600260200280828437600081840152601f19601f8201169050808301925050505050509192919290803590602001909291905050506105b2565b604051808381526020018281526020019250505060405180910390f35b60008073__EllipticCurve_________________________63364b62d5847f79be667ef9dcbbac55a06295ce870b07029bfcdb2dce28d959f2815b16f817987f483ada7726a3c4655da4fbfc0e1108a8fd17b448a68554199c47d08ffb10d4b860007ffffffffffffffffffffffffffffffffffffffffffffffffffffffffefffffc2f6040518663ffffffff1660e01b81526004018086815260200185815260200184815260200183815260200182815260200195505050505050604080518083038186803b15801561030a57600080fd5b505af415801561031e573d6000803e3d6000fd5b505050506040513d604081101561033457600080fd5b8101908080519060200190929190805190602001909291905050508092508193505050915091565b60008073__EllipticCurve_________________________63364b62d5847f79be667ef9dcbbac55a06295ce870b07029bfcdb2dce28d959f2815b16f817987f483ada7726a3c4655da4fbfc0e1108a8fd17b448a68554199c47d08ffb10d4b860007ffffffffffffffffffffffffffffffffffffffffffffffffffffffffefffffc2f6040518663ffffffff1660e01b81526004018086815260200185815260200184815260200183815260200182815260200195505050505050604080518083038186803b15801561042e57600080fd5b505af4158015610442573d6000803e3d6000fd5b505050506040513d604081101561045857600080fd5b8101908080519060200190929190805190602001909291905050508092508193505050915091565b60008073__EllipticCurve_________________________63c5e45aa4856000600281106104aa57fe5b6020020151866001600281106104bc57fe5b6020020151866000600281106104ce57fe5b6020020151876001600281106104e057fe5b602002015160007ffffffffffffffffffffffffffffffffffffffffffffffffffffffffefffffc2f6040518763ffffffff1660e01b8152600401808781526020018681526020018581526020018481526020018381526020018281526020019650505050505050604080518083038186803b15801561055e57600080fd5b505af4158015610572573d6000803e3d6000fd5b505050506040513d604081101561058857600080fd5b81019080805190602001909291908051906020019092919050505080925081935050509250929050565b60008073__EllipticCurve_________________________63364b62d584866000600281106105dd57fe5b6020020151876001600281106105ef57fe5b602002015160007ffffffffffffffffffffffffffffffffffffffffffffffffffffffffefffffc2f6040518663ffffffff1660e01b81526004018086815260200185815260200184815260200183815260200182815260200195505050505050604080518083038186803b15801561066657600080fd5b505af415801561067a573d6000803e3d6000fd5b505050506040513d604081101561069057600080fd5b8101908080519060200190929190805190602001909291905050508092508193505050925092905056fea165627a7a72305820576c0c75f4e6d0deb87b18e13397449ddb5e4e654320158642475bb73239551a0029",
  "source": "pragma solidity >=0.4.0 <0.6.0;\n\nimport \"./EllipticCurve.sol\";\n\n\n/**\n * @title Secp256k1 Elliptic Curve\n * @notice Example of particularization of Elliptic Curve for secp256k1 curve\n * @author Witnet Foundation\n */\nlibrary secp256k1 {\n\n  uint256 constant GX = 0x79BE667EF9DCBBAC55A06295CE870B07029BFCDB2DCE28D959F2815B16F81798;\n  uint256 constant GY = 0x483ADA7726A3C4655DA4FBFC0E1108A8FD17B448A68554199C47D08FFB10D4B8;\n  uint256 constant AA = 0;\n  uint256 constant BB = 7;\n  uint256 constant PP = 0xFFFFFFFFFFFFFFFFFFFFFFFFFFFFFFFFFFFFFFFFFFFFFFFFFFFFFFFEFFFFFC2F;\n\n  /// @dev Public Key derivation from private key\n  /// @param privKey The private key\n  /// @return (qx, qy) The Public Key\n  function derivePubKey(uint256 privKey) public pure returns(uint256 qx, uint256 qy) {\n    (qx, qy) = EllipticCurve.ecMul(\n      privKey,\n      GX,\n      GY,\n      AA,\n      PP\n    );\n  }\n\n  function ecMultG(uint256 s) public pure returns(uint256 qx, uint256 qy) {\n    (qx, qy) = EllipticCurve.ecMul(\n      s,\n      GX,\n      GY,\n      AA,\n      PP\n    );\n  }\n\n  function ecMult(uint256[2] memory keyImage, uint256 s) public pure returns(uint256 qx, uint256 qy) {\n    (qx, qy) = EllipticCurve.ecMul(\n      s,\n      keyImage[0],\n      keyImage[1],\n      AA,\n      PP\n    );\n  }\n\n  function ecAddd(uint256[2] memory x, uint256[2] memory y) public pure returns(uint256 qx, uint256 qy) {\n    (qx, qy) = EllipticCurve.ecAdd(\n      x[0],\n      x[1],\n      y[0],\n      y[1],\n      AA,\n      PP\n    );\n  }\n\n\n}",
  "sourcePath": "/Users/suchetaaa/Desktop/Anonymous-e-voting/contracts/secp256k1.sol",
  "compiler": {
    "name": "solc",
    "version": "0.5.8+commit.23d335f2.Emscripten.clang"
  },
  "schemaVersion": "3.0.16",
  "updatedAt": "2019-10-12T23:34:13.093Z",
  "devdoc": {
    "author": "Witnet Foundation",
    "methods": {
      "derivePubKey(uint256)": {
        "details": "Public Key derivation from private key",
        "params": {
          "privKey": "The private key"
        },
        "return": "(qx, qy) The Public Key"
      }
    },
    "title": "Secp256k1 Elliptic Curve"
  },
  "userdoc": {
    "methods": {},
    "notice": "Example of particularization of Elliptic Curve for secp256k1 curve"
  }
}